{
  "_format": "hh-sol-artifact-1",
  "contractName": "BezhasToken",
  "sourceName": "contracts/BezhasToken.sol",
  "abi": [
    {
      "inputs": [
        {
          "internalType": "uint256",
          "name": "initialSupply",
          "type": "uint256"
        }
      ],
      "stateMutability": "nonpayable",
      "type": "constructor"
    },
    {
      "inputs": [],
      "name": "AccessControlBadConfirmation",
      "type": "error"
    },
    {
      "inputs": [
        {
          "internalType": "address",
          "name": "account",
          "type": "address"
        },
        {
          "internalType": "bytes32",
          "name": "neededRole",
          "type": "bytes32"
        }
      ],
      "name": "AccessControlUnauthorizedAccount",
      "type": "error"
    },
    {
      "inputs": [
        {
          "internalType": "address",
          "name": "spender",
          "type": "address"
        },
        {
          "internalType": "uint256",
          "name": "allowance",
          "type": "uint256"
        },
        {
          "internalType": "uint256",
          "name": "needed",
          "type": "uint256"
        }
      ],
      "name": "ERC20InsufficientAllowance",
      "type": "error"
    },
    {
      "inputs": [
        {
          "internalType": "address",
          "name": "sender",
          "type": "address"
        },
        {
          "internalType": "uint256",
          "name": "balance",
          "type": "uint256"
        },
        {
          "internalType": "uint256",
          "name": "needed",
          "type": "uint256"
        }
      ],
      "name": "ERC20InsufficientBalance",
      "type": "error"
    },
    {
      "inputs": [
        {
          "internalType": "address",
          "name": "approver",
          "type": "address"
        }
      ],
      "name": "ERC20InvalidApprover",
      "type": "error"
    },
    {
      "inputs": [
        {
          "internalType": "address",
          "name": "receiver",
          "type": "address"
        }
      ],
      "name": "ERC20InvalidReceiver",
      "type": "error"
    },
    {
      "inputs": [
        {
          "internalType": "address",
          "name": "sender",
          "type": "address"
        }
      ],
      "name": "ERC20InvalidSender",
      "type": "error"
    },
    {
      "inputs": [
        {
          "internalType": "address",
          "name": "spender",
          "type": "address"
        }
      ],
      "name": "ERC20InvalidSpender",
      "type": "error"
    },
    {
      "inputs": [],
      "name": "EnforcedPause",
      "type": "error"
    },
    {
      "inputs": [],
      "name": "ExpectedPause",
      "type": "error"
    },
    {
      "anonymous": false,
      "inputs": [
        {
          "indexed": true,
          "internalType": "address",
          "name": "owner",
          "type": "address"
        },
        {
          "indexed": true,
          "internalType": "address",
          "name": "spender",
          "type": "address"
        },
        {
          "indexed": false,
          "internalType": "uint256",
          "name": "value",
          "type": "uint256"
        }
      ],
      "name": "Approval",
      "type": "event"
    },
    {
      "anonymous": false,
      "inputs": [
        {
          "indexed": false,
          "internalType": "address",
          "name": "account",
          "type": "address"
        }
      ],
      "name": "Paused",
      "type": "event"
    },
    {
      "anonymous": false,
      "inputs": [
        {
          "indexed": true,
          "internalType": "bytes32",
          "name": "role",
          "type": "bytes32"
        },
        {
          "indexed": true,
          "internalType": "bytes32",
          "name": "previousAdminRole",
          "type": "bytes32"
        },
        {
          "indexed": true,
          "internalType": "bytes32",
          "name": "newAdminRole",
          "type": "bytes32"
        }
      ],
      "name": "RoleAdminChanged",
      "type": "event"
    },
    {
      "anonymous": false,
      "inputs": [
        {
          "indexed": true,
          "internalType": "bytes32",
          "name": "role",
          "type": "bytes32"
        },
        {
          "indexed": true,
          "internalType": "address",
          "name": "account",
          "type": "address"
        },
        {
          "indexed": true,
          "internalType": "address",
          "name": "sender",
          "type": "address"
        }
      ],
      "name": "RoleGranted",
      "type": "event"
    },
    {
      "anonymous": false,
      "inputs": [
        {
          "indexed": true,
          "internalType": "bytes32",
          "name": "role",
          "type": "bytes32"
        },
        {
          "indexed": true,
          "internalType": "address",
          "name": "account",
          "type": "address"
        },
        {
          "indexed": true,
          "internalType": "address",
          "name": "sender",
          "type": "address"
        }
      ],
      "name": "RoleRevoked",
      "type": "event"
    },
    {
      "anonymous": false,
      "inputs": [
        {
          "indexed": true,
          "internalType": "address",
          "name": "from",
          "type": "address"
        },
        {
          "indexed": true,
          "internalType": "address",
          "name": "to",
          "type": "address"
        },
        {
          "indexed": false,
          "internalType": "uint256",
          "name": "value",
          "type": "uint256"
        }
      ],
      "name": "Transfer",
      "type": "event"
    },
    {
      "anonymous": false,
      "inputs": [
        {
          "indexed": false,
          "internalType": "address",
          "name": "account",
          "type": "address"
        }
      ],
      "name": "Unpaused",
      "type": "event"
    },
    {
      "inputs": [],
      "name": "BURNER_ROLE",
      "outputs": [
        {
          "internalType": "bytes32",
          "name": "",
          "type": "bytes32"
        }
      ],
      "stateMutability": "view",
      "type": "function"
    },
    {
      "inputs": [],
      "name": "DEFAULT_ADMIN_ROLE",
      "outputs": [
        {
          "internalType": "bytes32",
          "name": "",
          "type": "bytes32"
        }
      ],
      "stateMutability": "view",
      "type": "function"
    },
    {
      "inputs": [],
      "name": "MINTER_ROLE",
      "outputs": [
        {
          "internalType": "bytes32",
          "name": "",
          "type": "bytes32"
        }
      ],
      "stateMutability": "view",
      "type": "function"
    },
    {
      "inputs": [],
      "name": "PAUSER_ROLE",
      "outputs": [
        {
          "internalType": "bytes32",
          "name": "",
          "type": "bytes32"
        }
      ],
      "stateMutability": "view",
      "type": "function"
    },
    {
      "inputs": [
        {
          "internalType": "address",
          "name": "owner",
          "type": "address"
        },
        {
          "internalType": "address",
          "name": "spender",
          "type": "address"
        }
      ],
      "name": "allowance",
      "outputs": [
        {
          "internalType": "uint256",
          "name": "",
          "type": "uint256"
        }
      ],
      "stateMutability": "view",
      "type": "function"
    },
    {
      "inputs": [
        {
          "internalType": "address",
          "name": "spender",
          "type": "address"
        },
        {
          "internalType": "uint256",
          "name": "value",
          "type": "uint256"
        }
      ],
      "name": "approve",
      "outputs": [
        {
          "internalType": "bool",
          "name": "",
          "type": "bool"
        }
      ],
      "stateMutability": "nonpayable",
      "type": "function"
    },
    {
      "inputs": [
        {
          "internalType": "address",
          "name": "account",
          "type": "address"
        }
      ],
      "name": "balanceOf",
      "outputs": [
        {
          "internalType": "uint256",
          "name": "",
          "type": "uint256"
        }
      ],
      "stateMutability": "view",
      "type": "function"
    },
    {
      "inputs": [
        {
          "internalType": "uint256",
          "name": "amount",
          "type": "uint256"
        }
      ],
      "name": "burn",
      "outputs": [],
      "stateMutability": "nonpayable",
      "type": "function"
    },
    {
      "inputs": [
        {
          "internalType": "address",
          "name": "account",
          "type": "address"
        },
        {
          "internalType": "uint256",
          "name": "amount",
          "type": "uint256"
        }
      ],
      "name": "burnFrom",
      "outputs": [],
      "stateMutability": "nonpayable",
      "type": "function"
    },
    {
      "inputs": [],
      "name": "decimals",
      "outputs": [
        {
          "internalType": "uint8",
          "name": "",
          "type": "uint8"
        }
      ],
      "stateMutability": "view",
      "type": "function"
    },
    {
      "inputs": [
        {
          "internalType": "bytes32",
          "name": "role",
          "type": "bytes32"
        }
      ],
      "name": "getRoleAdmin",
      "outputs": [
        {
          "internalType": "bytes32",
          "name": "",
          "type": "bytes32"
        }
      ],
      "stateMutability": "view",
      "type": "function"
    },
    {
      "inputs": [
        {
          "internalType": "bytes32",
          "name": "role",
          "type": "bytes32"
        },
        {
          "internalType": "address",
          "name": "account",
          "type": "address"
        }
      ],
      "name": "grantRole",
      "outputs": [],
      "stateMutability": "nonpayable",
      "type": "function"
    },
    {
      "inputs": [
        {
          "internalType": "bytes32",
          "name": "role",
          "type": "bytes32"
        },
        {
          "internalType": "address",
          "name": "account",
          "type": "address"
        }
      ],
      "name": "hasRole",
      "outputs": [
        {
          "internalType": "bool",
          "name": "",
          "type": "bool"
        }
      ],
      "stateMutability": "view",
      "type": "function"
    },
    {
      "inputs": [
        {
          "internalType": "address",
          "name": "to",
          "type": "address"
        },
        {
          "internalType": "uint256",
          "name": "amount",
          "type": "uint256"
        }
      ],
      "name": "mint",
      "outputs": [],
      "stateMutability": "nonpayable",
      "type": "function"
    },
    {
      "inputs": [],
      "name": "name",
      "outputs": [
        {
          "internalType": "string",
          "name": "",
          "type": "string"
        }
      ],
      "stateMutability": "view",
      "type": "function"
    },
    {
      "inputs": [],
      "name": "pause",
      "outputs": [],
      "stateMutability": "nonpayable",
      "type": "function"
    },
    {
      "inputs": [],
      "name": "paused",
      "outputs": [
        {
          "internalType": "bool",
          "name": "",
          "type": "bool"
        }
      ],
      "stateMutability": "view",
      "type": "function"
    },
    {
      "inputs": [
        {
          "internalType": "bytes32",
          "name": "role",
          "type": "bytes32"
        },
        {
          "internalType": "address",
          "name": "callerConfirmation",
          "type": "address"
        }
      ],
      "name": "renounceRole",
      "outputs": [],
      "stateMutability": "nonpayable",
      "type": "function"
    },
    {
      "inputs": [
        {
          "internalType": "bytes32",
          "name": "role",
          "type": "bytes32"
        },
        {
          "internalType": "address",
          "name": "account",
          "type": "address"
        }
      ],
      "name": "revokeRole",
      "outputs": [],
      "stateMutability": "nonpayable",
      "type": "function"
    },
    {
      "inputs": [
        {
          "internalType": "bytes4",
          "name": "interfaceId",
          "type": "bytes4"
        }
      ],
      "name": "supportsInterface",
      "outputs": [
        {
          "internalType": "bool",
          "name": "",
          "type": "bool"
        }
      ],
      "stateMutability": "view",
      "type": "function"
    },
    {
      "inputs": [],
      "name": "symbol",
      "outputs": [
        {
          "internalType": "string",
          "name": "",
          "type": "string"
        }
      ],
      "stateMutability": "view",
      "type": "function"
    },
    {
      "inputs": [],
      "name": "totalSupply",
      "outputs": [
        {
          "internalType": "uint256",
          "name": "",
          "type": "uint256"
        }
      ],
      "stateMutability": "view",
      "type": "function"
    },
    {
      "inputs": [
        {
          "internalType": "address",
          "name": "to",
          "type": "address"
        },
        {
          "internalType": "uint256",
          "name": "value",
          "type": "uint256"
        }
      ],
      "name": "transfer",
      "outputs": [
        {
          "internalType": "bool",
          "name": "",
          "type": "bool"
        }
      ],
      "stateMutability": "nonpayable",
      "type": "function"
    },
    {
      "inputs": [
        {
          "internalType": "address",
          "name": "from",
          "type": "address"
        },
        {
          "internalType": "address",
          "name": "to",
          "type": "address"
        },
        {
          "internalType": "uint256",
          "name": "value",
          "type": "uint256"
        }
      ],
      "name": "transferFrom",
      "outputs": [
        {
          "internalType": "bool",
          "name": "",
          "type": "bool"
        }
      ],
      "stateMutability": "nonpayable",
      "type": "function"
    },
    {
      "inputs": [],
      "name": "unpause",
      "outputs": [],
      "stateMutability": "nonpayable",
      "type": "function"
    }
  ],
  "bytecode": "0x60406080815234620003d6576200158180380390816200001f8162000411565b9283928339602092839181010312620003d657519060009062000041620003db565b60088152672132bd16a1b7b4b760c11b828201526200005f620003db565b6003808252622122ad60e91b8483015282519192916001600160401b039190828111620002e1578154906001948583811c93168015620003cb575b88841014620003b7578190601f9384811162000364575b50889084831160011462000301578a92620002f5575b505060001982851b1c191690851b1782555b8451928311620002e15760049485548581811c91168015620002d6575b88821014620002c3578281116200027b575b50869184116001146200021457938394918492899562000208575b50501b92600019911b1c19161781555b6200013e3362000437565b506200014a33620004b8565b5062000156336200055b565b506200016233620005f9565b503315620001f15760ff60055416620001e35760025490848201809211620001d05750907fddf252ad1be2c89b69c2b068fc378daa952ba7f163c4a11628f55a4df523b3ef9160025533835282815284832084815401905584519384523393a351610ec99081620006988239f35b634e487b7160e01b845260119052602483fd5b845163d93c066560e01b8152fd5b845163ec442f0560e01b8152908101839052602490fd5b01519350388062000123565b85885286882092919084601f1981168a5b8a8983831062000263575050501062000248575b50505050811b01815562000133565b01519060f884600019921b161c191690553880808062000239565b86860151895590970196948501948893500162000225565b8689528789208380870160051c8201928a8810620002b9575b0160051c019086905b828110620002ad57505062000108565b8a81550186906200029d565b9250819262000294565b634e487b7160e01b895260228752602489fd5b90607f1690620000f6565b634e487b7160e01b87526041600452602487fd5b015190503880620000c7565b858b52898b208894509190601f1984168c5b8c8282106200034d575050841162000334575b505050811b018255620000d9565b015160001983871b60f8161c1916905538808062000326565b8385015186558b9790950194938401930162000313565b909150848a52888a208480850160051c8201928b8610620003ad575b918991869594930160051c01915b8281106200039e575050620000b1565b8c81558594508991016200038e565b9250819262000380565b634e487b7160e01b89526022600452602489fd5b92607f16926200009a565b600080fd5b60408051919082016001600160401b03811183821017620003fb57604052565b634e487b7160e01b600052604160045260246000fd5b6040519190601f01601f191682016001600160401b03811183821017620003fb57604052565b6001600160a01b031660008181527f54cdd369e4e8a8515e52ca72ec816c2101831ad1f18bf44102ed171459c9b4f8602052604081205490919060ff16620004b45781805260066020526040822081835260205260408220600160ff198254161790553391600080516020620015618339815191528180a4600190565b5090565b6001600160a01b031660008181527f3195c024b2ddd6d9b8f6c836aa52f67fe69376c8903d009b80229b3ce4425f5160205260408120549091907f9f2df0fed2c77648de5860a4cc508cd0818c85b8b8a1ab4ceeef8d981c8956a69060ff16620005565780835260066020526040832082845260205260408320600160ff1982541617905560008051602062001561833981519152339380a4600190565b505090565b6001600160a01b031660008181527f42d20fd6db25ea5a8e33f43724ad72f2ebd9488257fa78c86176b8175fc383fa60205260408120549091907f3c11d16cbaffd01df69ce1c404f6340ee057498f5f00246190ea54220576a8489060ff16620005565780835260066020526040832082845260205260408320600160ff1982541617905560008051602062001561833981519152339380a4600190565b6001600160a01b031660008181527fe09f975e15f8f53f24cbbc282b13c40b84df485fcdb8d3997fa103dc5a4ef84160205260408120549091907f65d7a28e3265b37a6474929f336521b332c1681b933f6cb9f3376673440d862a9060ff16620005565780835260066020526040832082845260205260408320600160ff1982541617905560008051602062001561833981519152339380a460019056fe608060408181526004918236101561001657600080fd5b600092833560e01c91826301ffc9a7146109555750816306fdde0314610879578163095ea7b3146107cf57816318160ddd146107b057816323b872dd14610773578163248a9ca314610748578163282c51f31461070d5781632f2ff15d146106e3578163313ce567146106c757816336568abe146106815781633f4ba83a1461061757816340c10f191461050a57816342966c68146104e45781635c975abb146104c057816370a082311461048957816379cc67901461044b5781638456cb59146103f057816391d14854146103a957816395d89b4114610288578163a217fddf1461026d578163a9059cbb1461023c578163d539139314610201578163d547741f146101bd57508063dd62ed3e146101755763e63ab1e91461013857600080fd5b34610171578160031936011261017157602090517f65d7a28e3265b37a6474929f336521b332c1681b933f6cb9f3376673440d862a8152f35b5080fd5b5034610171578060031936011261017157806020926101926109f1565b61019a610a0c565b6001600160a01b0391821683526001865283832091168252845220549051908152f35b919050346101fd57806003193601126101fd576101f991356101f460016101e2610a0c565b93838752600660205286200154610cb1565b610d57565b5080f35b8280fd5b505034610171578160031936011261017157602090517f9f2df0fed2c77648de5860a4cc508cd0818c85b8b8a1ab4ceeef8d981c8956a68152f35b50503461017157806003193601126101715760209061026661025c6109f1565b6024359033610af5565b5160018152f35b50503461017157816003193601126101715751908152602090f35b83833461017157816003193601126101715780519082845460018160011c906001831692831561039f575b602093848410811461038c57838852908115610370575060011461031b575b505050829003601f01601f191682019267ffffffffffffffff84118385101761030857508291826103049252826109a8565b0390f35b634e487b7160e01b815260418552602490fd5b8787529192508591837f8a35acfbc15ff81a39ae7d344fd709f28e8600b4aa8c65c6b64bfe7fe36bd19b5b83851061035c57505050508301018580806102d2565b805488860183015293019284908201610346565b60ff1916878501525050151560051b84010190508580806102d2565b634e487b7160e01b895260228a52602489fd5b91607f16916102b3565b9050346101fd57816003193601126101fd578160209360ff926103ca610a0c565b90358252600686528282206001600160a01b039091168252855220549151911615158152f35b50503461017157816003193601126101715760207f62e78cea01bee320cd4e420270b5ea74000d11b0c9f74754ebdbfc544b05a2589161042e610bdb565b610436610e75565b600160ff19600554161760055551338152a180f35b50503461017157366003190112610486576104836104676109f1565b60243590610473610c55565b61047e823383610a22565b610dce565b80f35b80fd5b5050346101715760203660031901126101715760209181906001600160a01b036104b16109f1565b16815280845220549051908152f35b50503461017157816003193601126101715760209060ff6005541690519015158152f35b8390346101715760203660031901126101715761048390610503610c55565b3533610dce565b919050346101fd57806003193601126101fd576105256109f1565b90602435917f9f2df0fed2c77648de5860a4cc508cd0818c85b8b8a1ab4ceeef8d981c8956a6808652600660205282862033875260205260ff8387205416156105f957506001600160a01b03169283156105e457610581610e75565b600254908382018092116105d1575084927fddf252ad1be2c89b69c2b068fc378daa952ba7f163c4a11628f55a4df523b3ef9260209260025585855284835280852082815401905551908152a380f35b634e487b7160e01b865260119052602485fd5b84602492519163ec442f0560e01b8352820152fd5b825163e2517d3f60e01b815233818701526024810191909152604490fd5b9050346101fd57826003193601126101fd57610631610bdb565b6005549060ff821615610673575060ff1916600555513381527f5db9ee0a495bf2e6ff9c91a7834c1ba4fdd244a5e8aa4e537bd38aeae4b073aa90602090a180f35b8251638dfc202b60e01b8152fd5b83833461017157806003193601126101715761069b610a0c565b90336001600160a01b038316036106b857506101f9919235610d57565b5163334bd91960e11b81528390fd5b5050346101715781600319360112610171576020905160128152f35b919050346101fd57806003193601126101fd576101f9913561070860016101e2610a0c565b610cd7565b505034610171578160031936011261017157602090517f3c11d16cbaffd01df69ce1c404f6340ee057498f5f00246190ea54220576a8488152f35b9050346101fd5760203660031901126101fd5781602093600192358152600685522001549051908152f35b505034610171576060366003190112610171576020906102666107946109f1565b61079c610a0c565b604435916107ab833383610a22565b610af5565b5050346101715781600319360112610171576020906002549051908152f35b9050346101fd57816003193601126101fd576107e96109f1565b602435903315610862576001600160a01b031691821561084b57508083602095338152600187528181208582528752205582519081527f8c5be1e5ebec7d5bd14f71427d1e84f3dd0314c0f7b2291e5b200ac8c7c3b925843392a35160018152f35b8351634a1406b160e11b8152908101859052602490fd5b835163e602df0560e01b8152808401869052602490fd5b8383346101715781600319360112610171578051908260035460018160011c906001831692831561094b575b602093848410811461038c5783885290811561037057506001146108f557505050829003601f01601f191682019267ffffffffffffffff84118385101761030857508291826103049252826109a8565b600387529192508591837fc2575a0e9e593c00f959f8c92f12db2869c3395a3b0502d05e2516446f71f85b5b83851061093757505050508301018580806102d2565b805488860183015293019284908201610921565b91607f16916108a5565b8491346101fd5760203660031901126101fd573563ffffffff60e01b81168091036101fd5760209250637965db0b60e01b8114908115610997575b5015158152f35b6301ffc9a760e01b14905083610990565b6020808252825181830181905290939260005b8281106109dd57505060409293506000838284010152601f8019910116010190565b8181018601518482016040015285016109bb565b600435906001600160a01b0382168203610a0757565b600080fd5b602435906001600160a01b0382168203610a0757565b9160018060a01b038093169160009383855260016020526040938486209183169182875260205284862054926000198410610a61575b50505050505050565b848410610ac557508015610aad578115610a9557855260016020528385209085526020520391205538808080808080610a58565b8451634a1406b160e11b815260048101879052602490fd5b845163e602df0560e01b815260048101879052602490fd5b8551637dc7a0d960e11b81526001600160a01b039190911660048201526024810184905260448101859052606490fd5b916001600160a01b03808416928315610bc25716928315610ba957610b18610e75565b60009083825281602052604082205490838210610b77575091604082827fddf252ad1be2c89b69c2b068fc378daa952ba7f163c4a11628f55a4df523b3ef958760209652828652038282205586815220818154019055604051908152a3565b60405163391434e360e21b81526001600160a01b03919091166004820152602481019190915260448101839052606490fd5b60405163ec442f0560e01b815260006004820152602490fd5b604051634b637e8f60e11b815260006004820152602490fd5b3360009081527fe09f975e15f8f53f24cbbc282b13c40b84df485fcdb8d3997fa103dc5a4ef84160205260409020547f65d7a28e3265b37a6474929f336521b332c1681b933f6cb9f3376673440d862a9060ff1615610c375750565b6044906040519063e2517d3f60e01b82523360048301526024820152fd5b3360009081527f42d20fd6db25ea5a8e33f43724ad72f2ebd9488257fa78c86176b8175fc383fa60205260409020547f3c11d16cbaffd01df69ce1c404f6340ee057498f5f00246190ea54220576a8489060ff1615610c375750565b80600052600660205260406000203360005260205260ff6040600020541615610c375750565b906000918083526006602052604083209160018060a01b03169182845260205260ff60408420541615600014610d525780835260066020526040832082845260205260408320600160ff198254161790557f2f8788117e7eff1d82e926ec794901d17c78024a50270940304540a733656f0d339380a4600190565b505090565b906000918083526006602052604083209160018060a01b03169182845260205260ff604084205416600014610d52578083526006602052604083208284526020526040832060ff1981541690557ff6391f5c32d9c69d2a47ea670b442974b53935d1edc7fd64eb21e047a839171b339380a4600190565b906001600160a01b038216908115610bc257610de8610e75565b60009282845283602052604084205490828210610e435750817fddf252ad1be2c89b69c2b068fc378daa952ba7f163c4a11628f55a4df523b3ef926020928587528684520360408620558060025403600255604051908152a3565b60405163391434e360e21b81526001600160a01b03919091166004820152602481019190915260448101829052606490fd5b60ff60055416610e8157565b60405163d93c066560e01b8152600490fdfea26469706673582212206f387cc10fb16818c71811f035893e157a0f744ddf9688a98b3cbb463cf5628864736f6c634300081800332f8788117e7eff1d82e926ec794901d17c78024a50270940304540a733656f0d",
  "linkReferences": {},
  "deployedLinkReferences": {}
}